S0130000524649445F4C6F636B65722E737265632D
S11300000C9434000C9451000C9451000C94510045
S11300100C94CF050C9451000C9451000C94510095
S11300200C9451000C9451000C9451000C94510008
S11300300C9451000C9491000C9451000C945100B8
S11300400C9451000C9451000C9408070C9451002A
S11300500C9451000C9451000C9451000C945100D8
S11300600C9451000C94510011241FBECFEFD8E022
S1130070DEBFCDBF11E0A0E0B1E0EEEDF7E102C0DC
S113008005900D92A838B107D9F721E0A8E8B1E0AE
S113009001C01D92A839B207E1F70E9449040C94EB
S11300A0ED0B0C940000CF93DF93CDB7DEB7299707
S11300B00FB6F894DEBF0FBECDBF6E837F838887F3
S11300C09987198221C08981882F90E0880F991F10
S11300D0880F991F0E94670BDC01CB018A839B83E5
S11300E0AC83BD832E813F81488559858A819B815C
S11300F0AC81BD81281739074A075B0711F481E0F9
S113010007C089818F5F898389818F3FE1F680E011
S113011029960FB6F894DEBF0FBECDBFDF91CF9105
S113012008951F920F9200905F000F9211242F9355
S11301303F938F939F93EF93FF93CF93DF93CDB729
S1130140DEB784E890E027EF32ECFC0131832083B2
S11301501092890181E890E021E830E0F9012081E2
S1130160287FFC0120830000DF91CF91FF91EF9164
S11301709F918F913F912F910F9000925F000F906C
S11301801F9018950F931F93CF93DF93CDB7DEB7CE
S1130190C854D1090FB6F894DEBF0FBECDBF9E017F
S11301A0295B3F4FF901918380838BE290E020E249
S11301B0FC012083CE01895B9F4FFC0180819181EA
S11301C0092E000CAA0BBB0BBC01CD010E945107E8
S11301D0DC01CB0189839A83AB83BC8320E030E0CC
S11301E04AE755E469817A818B819C810E94DE070C
S11301F0DC01CB019E01235C3F4FF9018083918395
S1130200A283B38320E030E040E85FE3CE01CD96E3
S1130210FC0160817181828193810E941B07882384
S11302204CF4CE018F5B9F4F21E030E0FC01318321
S1130230208367C020E03FEF4FE757E4CE01CD961F
S1130240FC0160817181828193810E94D907181613
S11302500CF046C020E030E040E251E469817A814C
S11302608B819C810E94DE07DC01CB018E010F5B38
S11302701F4FBC01CD010E942007DC01CB01F80116
S11302809183808324C0CE018D5B9F4F20E931E0B0
S1130290FC0131832083CE018D5B9F4FFC01808163
S11302A091810197F1F79E012D5B3F4FF9019183F5
S11302B08083CE018F5B9F4F9E012F5B3F4FF901DF
S11302C02081318121503109FC0131832083CE0109
S11302D08F5B9F4FFC0180819181892BA1F62BC0FC
S11302E08E010F5B1F4FCE01CD96FC0160817181A1
S11302F0828193810E942007DC01CB01F801918364
S11303008083CE018B5B9F4F9E012F5B3F4FF90192
S113031020813181FC0131832083CE018B5B9F4F8F
S1130320FC01808191810197F1F79E012B5B3F4F86
S1130330F901918380838BE290E0FC011082CE016D
S1130340895B9F4FFC0180819181092E000CAA0BCF
S1130350BB0BBC01CD010E945107DC01CB018D8395
S11303609E83AF83B88720E030E04AE755E46D818F
S11303707E818F8198850E94DE07DC01CB018BABE7
S11303809CABADABBEAB20E030E040E85FE36BA9D3
S11303907CA98DA99EA90E941B0788232CF481E0C7
S11303A090E098AF8FAB3FC020E03FEF4FE757E4BA
S11303B06BA97CA98DA99EA90E94D90718164CF592
S11303C020E030E040E251E46D817E818F819885A8
S11303D00E94DE07DC01CB01BC01CD010E94200795
S11303E0DC01CB0198AF8FAB0FC080E991E09AAFED
S11303F089AF89AD9AAD0197F1F79AAF89AF8FA90B
S113040098AD019798AF8FAB8FA998AD892B69F7F9
S113041014C06BA97CA98DA99EA90E942007DC01A8
S1130420CB0198AF8FAB8FA998AD9CAF8BAF8BAD41
S11304309CAD0197F1F79CAF8BAF8BE290E020E28B
S1130440FC012083CE01895B9F4FFC018081918157
S1130450092E000CAA0BBB0BBC01CD010E94510755
S1130460DC01CB0189879A87AB87BC8720E030E029
S11304704AE755E469857A858B859C850E94DE0769
S1130480DC01CB0189A79AA7ABA7BCA720E030E089
S113049040E85FE369A57AA58BA59CA50E941B078C
S11304A088232CF481E090E09EA78DA73FC020E034
S11304B03FEF4FE757E469A57AA58BA59CA50E9459
S11304C0D90718164CF520E030E040E251E4698584
S11304D07A858B859C850E94DE07DC01CB01BC01FB
S11304E0CD010E942007DC01CB019EA78DA70FC080
S11304F080E991E098AB8FA78FA598A90197F1F7B0
S113050098AB8FA78DA59EA501979EA78DA78DA5B6
S11305109EA5892B69F714C069A57AA58BA59CA50E
S11305200E942007DC01CB019EA78DA78DA59EA567
S11305309AAB89AB89A99AA90197F1F79AAB89ABD0
S11305408BE290E0FC011082CE01895B9F4FFC019D
S113055080819181092E000CAA0BBB0BBC01CD013B
S11305600E945107DC01CB018D879E87AF87B88B32
S113057020E030E04AE755E46D857E858F859889D3
S11305800E94DE07DC01CB018F8F98A3A9A3BAA335
S113059020E030E040E85FE36F8D78A189A19AA163
S11305A00E941B0788232CF481E090E09CA38BA37A
S11305B03FC020E03FEF4FE757E46F8D78A189A15A
S11305C09AA10E94D90718164CF520E030E040E2C9
S11305D051E46D857E858F8598890E94DE07DC0154
S11305E0CB01BC01CD010E942007DC01CB019CA3FF
S11305F08BA30FC080E991E09EA38DA38DA19EA142
S11306000197F1F79EA38DA38BA19CA101979CA3B5
S11306108BA38BA19CA1892B69F714C06F8D78A142
S113062089A19AA10E942007DC01CB019CA38BA382
S11306308BA19CA198A78FA38FA198A50197F1F7EF
S113064098A78FA38BE290E020E2FC012083CE01E7
S1130650895B9F4FFC0180819181092E000CAA0BBC
S1130660BB0BBC01CD010E945107DC01CB01898B7E
S11306709A8BAB8BBC8B20E030E04AE755E4698968
S11306807A898B899C890E94DE07DC01CB018D8BE2
S11306909E8BAF8BB88F20E030E040E85FE36D893C
S11306A07E898F89988D0E941B0788232CF481E012
S11306B090E09A8F898F3FC020E03FEF4FE757E4E7
S11306C06D897E898F89988D0E94D90718164CF5FB
S11306D020E030E040E251E469897A898B899C8981
S11306E00E94DE07DC01CB01BC01CD010E94200782
S11306F0DC01CB019A8F898F0FC080E991E09C8F38
S11307008B8F8B8D9C8D0197F1F79C8F8B8F898DAF
S11307109A8D01979A8F898F898D9A8D892B69F784
S113072014C06D897E898F89988D0E942007DC0111
S1130730CB019A8F898F898D9A8D9E8F8D8F8D8D08
S11307409E8D0197F1F79E8F8D8F8BE290E0FC01D7
S113075010820000C85BDF4F0FB6F894DEBF0FBEF7
S1130760CDBFDF91CF911F910F910895CF93DF9368
S1130770CDB7DEB72E970FB6F894DEBF0FBECDBF50
S113078084E091E00E94E9068BE290E024E0FC0121
S1130790208380E090E0AAE7B4E489839A83AB8362
S11307A0BC8320E030E04AE755E469817A818B819B
S11307B09C810E94DE07DC01CB018D839E83AF8385
S11307C0B88720E030E040E85FE36D817E818F816F
S11307D098850E941B0788232CF481E090E09A8777
S11307E089873FC020E03FEF4FE757E46D817E816A
S11307F08F8198850E94D90718164CF520E030E0C7
S113080040E251E469817A818B819C810E94DE07F8
S1130810DC01CB01BC01CD010E942007DC01CB012E
S11308209A8789870FC080E991E09C878B878B85A5
S11308309C850197F1F79C878B8789859A85019719
S11308409A87898789859A85892B69F714C06D8170
S11308507E818F8198850E942007DC01CB019A87D5
S1130860898789859A859E878D878D859E85019741
S1130870F1F79E878D878BE290E0FC0110820000E7
S11308802E960FB6F894DEBF0FBECDBFDF91CF9189
S11308900895CF93DF93CDB7DEB787E290E027E2E8
S11308A030E0F9012081237FFC01208387E290E07E
S11308B027E230E0F90120812E7FFC01208388E2C9
S11308C090E028E230E0F90120812D60FC012083D2
S11308D08AE290E02FEFFC01208380E890E0FC01A5
S11308E0108281E890E0FC01108281E890E021E828
S11308F030E0F90120812560FC01208360E875E285
S113090086E00E94970688E690E028E630E0F90148
S113091020812260FC0120838CE690E02CE0FC0125
S11309202083789486E191E00E94E90680E090E0DB
S11309300E94670BDC01CB0180938F01909390019F
S1130940A0939101B093920180918F0190919001B5
S1130950A0919101B09192012B2F2F932A2F2F93C5
S1130960292F2F938F938AE291E0892F8F938AE224
S113097091E08F9383E991E0892F8F9383E991E04C
S11309808F930E94B4088DB79EB708960FB6F8945B
S1130990DEBF0FBECDBF83E991E00E94E9068091DE
S11309A08A01813009F0E6C080918B0190918C011D
S11309B0A0918D01B0918E012B2F2F932A2F2F936D
S11309C0292F2F938F9387E391E0892F8F9387E3C8
S11309D091E08F9383E991E0892F8F9383E991E0EC
S11309E08F930E94B408EDB7FEB738960FB6F8940B
S11309F0DEBF0FBECDBF83E991E00E94E90680917E
S1130A008B0190918C01A0918D01B0918E01BC015C
S1130A10CD010E945300882379F080918B0190913D
S1130A208C01A0918D01B0918E01892B8A2B8B2B87
S1130A3019F00E94B60304C08DE391E00E94E90618
S1130A4010928A011092890186E290E0FC01808173
S1130A50882F90E081709927892B09F08BC08091B1
S1130A608B0190918C01A0918D01B0918E01BC01FC
S1130A70CD010E945300882309F06CC020918B01A2
S1130A8030918C0140918D0150918E018091000133
S1130A9090910101A0910201B09103012817390737
S1130AA04A075B0709F056C080918F01909190012D
S1130AB0A0919101B091920181309140A105B105BD
S1130AC048F088EE93E00E94C20085E591E00E9420
S1130AD0E90640C080918B0190918C01A0918D0119
S1130AE0B0918E0120918F0130919001409191013C
S1130AF050919201220F331F220F331FAC01BD010D
S1130B00C9010E94790B81E791E00E94E906809176
S1130B108F0190919001A0919101B0919201019661
S1130B20A11DB11D80938F0190939001A093910119
S1130B30B093920180918F0190919001A0919101C5
S1130B40B0919201AC01BD0180E090E00E946D0B78
S1130B500E94B60380918B0190918C01A0918D012C
S1130B60B0918E018093000190930101A093020142
S1130B70B093030186E290E0FC018081882F90E02D
S1130B8081709927892B31F48BE290E020E2FC01FB
S1130B90208305CF8BE290E0FC01108200CF1F92EE
S1130BA00F9200905F000F9211242F933F938F9325
S1130BB09F93AF93BF93EF93FF93CF93DF931F92D2
S1130BC0CDB7DEB786E290E0FC018081882F90E00B
S1130BD08C7099279595879595958795898384E851
S1130BE090E027EF32ECFC01318320838FE690E024
S1130BF02FE630E0F90120812160FC0120838091FF
S1130C008901882F90E08230910531F1833091057C
S1130C102CF4009779F0019789F077C0843091051E
S1130C2009F46BC0843091050CF456C0059709F49F
S1130C3068C06BC081E08093890167C010928B010A
S1130C4010928C0110928D0110928E0110928801E5
S1130C5082E08093890159C080918B0190918C012D
S1130C60A0918D01B0918E01880F991FAA1FBB1FFF
S1130C7080938B0190938C01A0938D01B0938E018E
S1130C808981823091F480918B0190918C01A091A3
S1130C908D01B0918E01816080938B0190938C01C2
S1130CA0A0938D01B0938E0113C08981882381F4B0
S1130CB080918B0190918C01A0918D01B0918E0156
S1130CC080938B0190938C01A0938D01B0938E013E
S1130CD083E08093890119C0809188018F5F80939C
S1130CE0880180918801883120F482E08093890111
S1130CF00CC084E08093890108C085E08093890159
S1130D0004C081E080938A01000000000F90DF910D
S1130D10CF91FF91EF91BF91AF919F918F913F91AF
S1130D202F910F9000925F000F901F9018950F93D2
S1130D301F93CF93DF9300D01F92CDB7DEB7898383
S1130D407B836A8304EC10E08A819B819C0140E0F0
S1130D5050E080E492E4AFE0B0E0BC01CD010E9439
S1130D607308DA01C9010197F8019183808382EC49
S1130D7090E02981FC01208381EC90E021EC30E0BB
S1130D80F90120812861FC01208300000F900F905D
S1130D900F90DF91CF911F910F910895CF93DF931F
S1130DA01F92CDB7DEB78983000080EC90E0FC0190
S1130DB08081882F90E080729927892BB1F386EC8B
S1130DC090E02981FC01208300000F90DF91CF91F6
S1130DD00895CF93DF9300D0CDB7DEB79A8389838C
S1130DE00BC089819A819C012F5F3F4F3A832983ED
S1130DF0FC0180810E94CE0689819A81FC01808158
S1130E00882379F700000F900F90DF91CF91089518
S1130E101F920F9200905F000F921124CF93DF93E3
S1130E20CDB7DEB70000DF91CF910F9000925F0045
S1130E300F901F9018950E948C0708F481E0089584
S1130E400E94B80788F09F5798F0B92F9927B75197
S1130E50B0F0E1F0660F771F881F991F1AF0BA955A
S1130E60C9F714C0B13091F00E94D207B1E00895DF
S1130E700C94D207672F782F8827B85F39F0B93FD1
S1130E80CCF3869577956795B395D9F73EF490950D
S1130E908095709561957F4F8F4F9F4F0895E8948B
S1130EA009C097FB3EF490958095709561957F4FAE
S1130EB08F4F9F4F9923A9F0F92F96E9BB2793955C
S1130EC0F695879577956795B795F111F8CFFAF46C
S1130ED0BB0F11F460FF1BC06F5F7F4F8F4F9F4F9D
S1130EE016C0882311F096E911C0772321F09EE8FB
S1130EF0872F762F05C0662371F096E8862F70E061
S1130F0060E02AF09A95660F771F881FDAF7880F3A
S1130F109695879597F90895990F0008550FAA0B90
S1130F20E0E8FEEF16161706E807F907C0F01216F8
S1130F301306E407F50798F0621B730B840B950BFB
S1130F4039F40A2661F0232B242B252B21F4089550
S1130F500A2609F4A140A6958FEF811D811D0895ED
S1130F6057FD9058440F551F59F05F3F71F0479556
S1130F70880F97FB991F61F09F3F79F0879508953B
S1130F80121613061406551FF2CF4695F1DF08C05A
S1130F90161617061806991FF1CF86957105610577
S1130FA008940895E894BB2766277727CB0197F91F
S1130FB008950E948C0708F48FEF08950E94F107AA
S1130FC00C9462080E94540838F00E945B0820F0D8
S1130FD0952311F00C944B080C94510811240C9493
S1130FE0D3070E94B00770F3959FC1F3950F50E0AB
S1130FF0551F629FF001729FBB27F00DB11D639FC7
S1131000AA27F00DB11DAA1F649F6627B00DA11D6C
S1131010661F829F2227B00DA11D621F739FB00D12
S1131020A11D621F839FA00D611D221F749F332782
S1131030A00D611D231F849F600D211D822F762F1B
S11310406A2F11249F5750409AF0F1F088234AF0F8
S1131050EE0FFF1FBB1F661F771F881F9150504064
S1131060A9F79E3F510580F00C944B080C94D307CC
S11310705F3FE4F3983ED4F3869577956795B795EB
S1131080F795E7959F5FC1F7FE2B880F911D969505
S1131090879597F9089597F99F6780E870E060E075
S11310A008959FEF80EC089500240A9416161706FD
S11310B018060906089500240A9412161306140645
S11310C005060895092E0394000C11F4882352F0A8
S11310D0BB0F40F4BF2B11F460FF04C06F5F7F4F60
S11310E08F4F9F4F0895052E97FB1EF400940E9486
S11310F08A0857FD07D00E94920807FC03D04EF4DB
S11311000C948A0850954095309521953F4F4F4F48
S11311105F4F089590958095709561957F4F8F4F9F
S11311209F4F0895A1E21A2EAA1BBB1BFD010DC0FF
S1131130AA1FBB1FEE1FFF1FA217B307E407F50783
S113114020F0A21BB30BE40BF50B661F771F881F5F
S1131150991F1A9469F760957095809590959B01F5
S1131160AC01BD01CF010895AEE0B0E0EAEBF8E0D8
S11311700C94C40B0D891E8986E08C831A83098321
S11311808FEF9FE79E838D83AE01475E5F4F6F892C
S1131190788DCE0101960E94D608EF81F885E00F84
S11311A0F11F10822E96E4E00C94E00BABE0B0E06B
S11311B0ECEDF8E00C94B60B6C017B018A01FC01A8
S11311C017821682838181FFCCC1CE0101963C0136
S11311D0F6019381F70193FD859193FF81917F013E
S11311E0882309F4BAC1853239F493FD859193FFBC
S11311F081917F01853229F4B60190E00E94CD0AE5
S1131200E7CF912C212C312CFFE1F315D8F08B3250
S113121079F038F4803279F08332A1F4232D2061FF
S11312201DC08D3261F0803369F4232D216016C016
S1131230832D8260382EE32DE4603E2E2AC0F32DE8
S1131240F8601DC037FC2DC020ED280F2A3040F077
S11312508E32B9F436FC81C1232D2064322E19C09C
S113126036FE06C08AE0989E200D1124922E11C0ED
S1131270EAE02E9E200D1124222EF32DF0623F2E43
S113128008C08C3621F4832D8068382E02C088363D
S113129041F4F70193FD859193FF81917F018111C1
S11312A0B3CF982F9F7D9554933028F40C5F1F4F34
S11312B09FE399830DC0833631F0833771F0833512
S11312C009F059C021C0F801808189830E5F1F4F46
S11312D088248394912C530113C02801F2E04F0E0B
S11312E0511CF801A080B18036FE03C0692D70E066
S11312F002C06FEF7FEFC5010E94C20A4C01820158
S1131300F32DFF773F2E16C0280122E0420E511C18
S1131310F801A080B18036FE03C0692D70E002C0E0
S11313206FEF7FEFC5010E94B70A4C01F32DF068FF
S11313303F2E820133FC1BC0822D90E08816990653
S1131340B0F4B60180E290E00E94CD0A2A94F4CF72
S1131350F50137FC859137FE81915F01B60190E07C
S11313600E94CD0A21102A9421E0821A9108811446
S1131370910471F7E8C0843611F0893641F5F8011B
S113138037FE07C060817181828193810C5F1F4F9A
S113139008C060817181072E000C880B990B0E5FC9
S11313A01F4FF32DFF763F2E97FF09C09095809530
S11313B0709561957F4F8F4F9F4FF0683F2E2AE0C5
S11313C030E0A3010E94090B882E861845C085379A
S11313D031F4232D2F7EB22E2AE030E025C0932D48
S11313E0997FB92E8F36C1F018F4883579F0B5C0DD
S11313F0803719F0883721F0B0C0E92FE061BE2EA4
S1131400B4FE0DC0FB2DF460BF2E09C034FE0AC02B
S1131410292F2660B22E06C028E030E005C020E166
S113142030E002C020E132E0F801B7FE07C060817D
S11314307181828193810C5F1F4F06C0608171812D
S113144080E090E00E5F1F4FA3010E94090B882EDD
S11314508618FB2DFF773F2E36FE0DC0232D2E7FE1
S1131460A22E891458F434FE0BC032FC09C0832D1B
S11314708E7EA82E05C0B82CA32C03C0B82C01C0A6
S1131480B92CA4FE0FC0FE01E80DF11D808180334C
S113149021F49A2D997EA92E09C0A2FE06C0B39408
S11314A0B39404C08A2D867809F0B394A3FC11C0C8
S11314B0A0FE06C0B21488F4280C922C9B180EC00F
S11314C0B21460F4B60180E290E00E94CD0AB394B5
S11314D0F7CFB21418F42B1802C0982C212CA4FEB8
S11314E010C0B60180E390E00E94CD0AA2FE17C0AE
S11314F0A1FC03C088E790E002C088E590E0B60153
S11315000CC08A2D867859F0A1FE02C08BE201C07E
S113151080E2A7FC8DE2B60190E00E94CD0A891416
S113152038F4B60180E390E00E94CD0A9A94F7CF94
S11315308A94F301E80DF11D8081B60190E00E94C8
S1131540CD0A8110F5CF222009F442CEB60180E203
S113155090E00E94CD0A2A94F6CFF6018681978105
S113156002C08FEF9FEF2B96E2E10C94D20BFC01AB
S11315700590615070400110D8F7809590958E0FBA
S11315809F1F0895FC016150704001900110D8F72D
S1131590809590958E0F9F1F08950F931F93CF935F
S11315A0DF93FB01238121FD03C08FEF9FEF2CC04C
S11315B022FF16C046815781248135814217530783
S11315C044F4A081B1819D012F5F3F4F318320837B
S11315D08C93268137812F5F3F4F3783268314C036
S11315E08B01EC01FB010084F185E02D0995892B29
S11315F0E1F6D80116968D919C911797019617964E
S11316009C938E931697CE01DF91CF911F910F91EA
S11316100895FA01AA27283051F1203181F1E89484
S11316206F936E7F6E5F7F4F8F4F9F4FAF4FB1E0D1
S11316303ED0B4E03CD0670F781F891F9A1FA11DCC
S1131640680F791F8A1F911DA11D6A0F711D811DCD
S1131650911DA11D20D009F468943F912AE0269F92
S113166011243019305D3193DEF6CF010895462FF1
S11316704770405D4193B3E00FD0C9F7F6CF462FD2
S11316804F70405D4A3318F0495D31FD405241933B
S113169002D0A9F7EACFB4E0A695979587957795F8
S11316A06795BA95C9F700976105710508959B017F
S11316B0AC010A2E06945795479537952795BA9508
S11316C0C9F7620F731F841F951FA01D0895A6E11B
S11316D0B0E044E050E00C94880B0396272F0E945E
S11316E0970B0E94960B252F0E94970B242F0C9486
S11316F0970B242F0E94A90B252F0E94A90B0C9451
S1131700810B0E94A80B272F0C94A90BDC01CB01A1
S1131710FC01F999FECF06C0F2BDE1BDF89A3196FD
S113172000B40D9241505040B8F70895262FF9990E
S1131730FECF92BD81BDF89A019700B4021639F02C
S11317401FBA20BD0FB6F894FA9AF99A0FBE0895FD
S1131750262FF999FECF1FBA92BD81BD20BD0FB6C9
S1131760F894FA9AF99A0FBE019608952F923F922F
S11317704F925F926F927F928F929F92AF92BF929D
S1131780CF92DF92EF92FF920F931F93CF93DF9349
S1131790CDB7DEB7CA1BDB0B0FB6F894DEBF0FBEA6
S11317A0CDBF09942A88398848885F846E847D84F3
S11317B08C849B84AA84B984C884DF80EE80FD80F5
S11317C00C811B81AA81B981CE0FD11D0FB6F8946B
S11117D0DEBF0FBECDBFED010895F894FFCF2C
S11317DEFFFF0000417574686F72697A6564204377
S11317EE617264210A00524649445F4C6F636B2058
S11317FE73746172746564210A00436F756E743A72
S113180E20252E35750D00252E35750D004361727C
S113181E74E36F206EE36F206361646173747261AD
S113182E646F210A004573746F75726F20646120B2
S113183E6D656DF372696120656570726F6D210A55
S113184E004964206772617661646F20636F6D2056
S10B185E7375636573736F0079
S9030000FC
