S0130000524649445F4C6F636B65722E737265632D
S11300000C9434000C9451000C9451000C94510045
S11300100C94A8020C9451000C9451000C945100BF
S11300200C9451000C9451000C9451000C94510008
S11300300C9451000C9451000C9451000C945100F8
S11300400C9451000C9451000C94CD030C94510069
S11300500C9451000C9451000C9451000C945100D8
S11300600C9451000C94510011241FBECFEFD8E022
S1130070DEBFCDBF11E0A0E0B1E0EEEEF0E102C0E2
S113008005900D92AC37B107D9F721E0ACE7B1E0A8
S113009001C01D92AC38B207E1F70E9496010C949E
S11300A075080C940000CF93DF93CDB7DEB7299782
S11300B00FB6F894DEBF0FBECDBF6E837F838887F3
S11300C09987198221C08981882F90E0880F991F10
S11300D0880F991F0E94EF07DC01CB018A839B8361
S11300E0AC83BD832E813F81488559858A819B815C
S11300F0AC81BD81281739074A075B0711F481E0F9
S113010007C089818F5F898389818F3FE1F680E011
S113011029960FB6F894DEBF0FBECDBFDF91CF9105
S11301200895CF93DF93CDB7DEB76C970FB6F894ED
S1130130DEBF0FBECDBF80E091E00E94AE038BE234
S113014090E024E0FC01208380E090E0AAE7B4E49E
S113015089839A83AB83BC8320E030E04AE755E48B
S113016069817A818B819C810E946604DC01CB01C8
S11301708B8B9C8BAD8BBE8B20E030E040E85FE343
S11301806B897C898D899E890E94E00388232CF4E5
S113019081E090E0988F8F8B3FC020E03FEF4FE7E6
S11301A057E46B897C898D899E890E9461041816A5
S11301B04CF520E030E040E251E469817A818B81A2
S11301C09C810E946604DC01CB01BC01CD010E942C
S11301D0E503DC01CB01988F8F8B0FC080E991E0A0
S11301E09A8F898F898D9A8D0197F1F79A8F898FCC
S11301F08F89988D0197988F8F8B8F89988D892BF4
S113020069F714C06B897C898D899E890E94E503F6
S1130210DC01CB01988F8F8B8F89988D9C8F8B8F6E
S11302208B8D9C8D0197F1F79C8F8B8F8BE290E0E7
S1130230FC01108280E090E0AAE7B4E48D839E8301
S1130240AF83B88720E030E04AE755E46D817E81D2
S11302508F8198850E946604DC01CB0189879A8787
S1130260AB87BC8720E030E040E85FE369857A85AE
S11302708B859C850E94E00388232CF481E090E028
S11302809E878D873FC020E03FEF4FE757E46985A5
S11302907A858B859C850E94610418164CF520E0B4
S11302A030E040E251E46D817E818F8198850E9427
S11302B06604DC01CB01BC01CD010E94E503DC0135
S11302C0CB019E878D870FC080E991E0988B8F8743
S11302D08F8598890197F1F7988B8F878D859E85F7
S11302E001979E878D878D859E85892B69F714C01C
S11302F069857A858B859C850E94E503DC01CB01A9
S11303009E878D878D859E859A8B898B89899A890D
S11303100197F1F79A8B898B00006C960FB6F894CD
S1130320DEBF0FBECDBFDF91CF910895CF93DF9392
S1130330CDB7DEB787E290E027E230E0F901208113
S1130340237FFC01208387E290E027E230E0F9017B
S113035020812E7FFC01208388E290E028E230E0B7
S1130360F90120812D60FC0120838AE290E02FEFC7
S1130370FC01208360E875E286E00E945C0388E665
S113038090E028E630E0F90120812260FC0120831E
S11303908CE690E02CE0FC012083789482E191E0EB
S11303A00E94AE0380E090E00E94EF07DC01CB01E5
S11303B08093830190938401A0938501B093860177
S11303C080917E01813009F0AEC080917F019091CF
S11303D08001A0918101B09182012B2F2F932A2FAC
S11303E02F93292F2F938F9386E291E0892F8F9358
S11303F086E291E08F9387E891E0892F8F9387E8D5
S113040091E08F930E943C058DB79EB708960FB676
S1130410F894DEBF0FBECDBF87E891E00E94AE0323
S113042080917F0190918001A0918101B09182011E
S1130430BC01CD010E945300882319F00E94910051
S113044004C080E391E00E94AE0310927E011092FA
S11304507D0186E290E0FC018081882F90E081702C
S11304609927892B09F05FC080917F0190918001C9
S1130470A0918101B0918201BC01CD010E94530081
S1130480882309F050C08091830190918401A09148
S11304908501B091860181309140A105B10528F014
S11304A088E491E00E94AE033EC080917F01909168
S11304B08001A0918101B09182012091830130914A
S11304C084014091850150918601220F331F220F30
S11304D0331FAC01BD01C9010E94010884E691E00B
S11304E00E94AE038091830190918401A0918501C3
S11304F0B09186010196A11DB11D80938301909353
S11305008401A0938501B093860180918301909129
S11305108401A0918501B0918601AC01BD0180E008
S113052090E00E94F50786E290E0FC018081882F2C
S113053090E081709927892B31F48BE290E020E2DE
S1130540FC0120833DCF8BE290E0FC01108238CF88
S11305501F920F9200905F000F9211248F939F932C
S1130560AF93BF93EF93FF93CF93DF931F92CDB7D6
S1130570DEB786E290E0FC018081882F90E08C70E9
S113058099279595879595958795898380917D0180
S1130590882F90E08230910531F1833091052CF45D
S11305A0009779F0019789F077C08430910509F4B8
S11305B06BC0843091050CF456C0059709F468C0EB
S11305C06BC081E080937D0167C010927F0110921F
S11305D08001109281011092820110927C0182E0CC
S11305E080937D0159C080917F0190918001A091F9
S11305F08101B0918201880F991FAA1FBB1F8093AC
S11306007F0190938001A0938101B093820189813D
S1130610823091F480917F0190918001A0918101B9
S1130620B0918201816080937F0190938001A093B7
S11306308101B093820113C08981882381F4809160
S11306407F0190918001A0918101B09182018093FA
S11306507F0190938001A0938101B093820183E094
S113066080937D0119C080917C018F5F80937C0110
S113067080917C01883120F482E080937D010CC05C
S113068084E080937D0108C085E080937D0104C0EF
S113069081E080937E01000000000F90DF91CF91F4
S11306A0FF91EF91BF91AF919F918F910F90009225
S11306B05F000F901F9018950F931F93CF93DF93B4
S11306C000D01F92CDB7DEB789837B836A8304ECA5
S11306D010E08A819B819C0140E050E080E492E438
S11306E0AFE0B0E0BC01CD010E94FB04DA01C90116
S11306F00197F8019183808382EC90E02981FC01C9
S1130700208381EC90E021EC30E0F9012081286124
S1130710FC01208300000F900F900F90DF91CF9188
S11307201F910F910895CF93DF931F92CDB7DEB73A
S11307308983000080EC90E0FC018081882F90E0A8
S113074080729927892BB1F386EC90E02981FC0112
S1130750208300000F90DF91CF910895CF93DF9312
S113076000D0CDB7DEB79A8389830BC089819A8183
S11307709C012F5F3F4F3A832983FC0180810E94B3
S1130780930389819A81FC018081882379F7000091
S11307900F900F90DF91CF9108951F920F920090C8
S11307A05F000F921124CF93DF93CDB7DEB7000023
S11307B0DF91CF910F9000925F000F901F901895DA
S11307C00E94140408F481E008950E94400488F013
S11307D09F5798F0B92F9927B751B0F0E1F0660F01
S11307E0771F881F991F1AF0BA95C9F714C0B13042
S11307F091F00E945A04B1E008950C945A04672FB2
S1130800782F8827B85F39F0B93FCCF38695779570
S11308106795B395D9F73EF4909580957095619559
S11308207F4F8F4F9F4F0895990F0008550FAA0BC4
S1130830E0E8FEEF16161706E807F907C0F01216EF
S11308401306E407F50798F0621B730B840B950BF2
S113085039F40A2661F0232B242B252B21F4089547
S11308600A2609F4A140A6958FEF811D811D0895E4
S113087057FD9058440F551F59F05F3F71F047954D
S1130880880F97FB991F61F09F3F79F08795089532
S1130890121613061406551FF2CF4695F1DF08C051
S11308A0161617061806991FF1CF8695710561056E
S11308B008940895E894BB2766277727CB0197F916
S11308C008950E94140408F48FEF08950E94790497
S11308D00C94EA040E94DC0438F00E94E30420F043
S11308E0952311F00C94D3040C94D90411240C9482
S11308F05B040E94380470F3959FC1F3950F50E098
S1130900551F629FF001729FBB27F00DB11D639FBD
S1130910AA27F00DB11DAA1F649F6627B00DA11D63
S1130920661F829F2227B00DA11D621F739FB00D09
S1130930A11D621F839FA00D611D221F749F332779
S1130940A00D611D231F849F600D211D822F762F12
S11309506A2F11249F5750409AF0F1F088234AF0EF
S1130960EE0FFF1FBB1F661F771F881F915050405B
S1130970A9F79E3F510580F00C94D3040C945B04BA
S11309805F3FE4F3983ED4F3869577956795B795E2
S1130990F795E7959F5FC1F7FE2B880F911D9695FC
S11309A0879597F9089597F99F6780E870E060E06C
S11309B008959FEF80EC089500240A9416161706F4
S11309C018060906089500240A941216130614063C
S11309D005060895092E0394000C11F4882352F09F
S11309E0BB0F40F4BF2B11F460FF04C06F5F7F4F57
S11309F08F4F9F4F0895052E97FB1EF400940E947D
S1130A00120557FD07D00E941A0507FC03D04EF4C7
S1130A100C94120550954095309521953F4F4F4FBA
S1130A205F4F089590958095709561957F4F8F4F96
S1130A309F4F0895A1E21A2EAA1BBB1BFD010DC0F6
S1130A40AA1FBB1FEE1FFF1FA217B307E407F5077A
S1130A5020F0A21BB30BE40BF50B661F771F881F56
S1130A60991F1A9469F760957095809590959B01EC
S1130A70AC01BD01CF010895AEE0B0E0E2E4F5E0E1
S1130A800C944C080D891E8986E08C831A83098393
S1130A908FEF9FE79E838D83AE01475E5F4F6F8923
S1130AA0788DCE0101960E945E05EF81F885E00FF6
S1130AB0F11F10822E96E4E00C946808ABE0B0E0DD
S1130AC0E4E6F5E00C943E086C017B018A01FC012C
S1130AD017821682838181FFCCC1CE0101963C012D
S1130AE0F6019381F70193FD859193FF81917F0135
S1130AF0882309F4BAC1853239F493FD859193FFB3
S1130B0081917F01853229F4B60190E00E94550756
S1130B10E7CF912C212C312CFFE1F315D8F08B3247
S1130B2079F038F4803279F08332A1F4232D2061F6
S1130B301DC08D3261F0803369F4232D216016C00D
S1130B40832D8260382EE32DE4603E2E2AC0F32DDF
S1130B50F8601DC037FC2DC020ED280F2A3040F06E
S1130B608E32B9F436FC81C1232D2064322E19C093
S1130B7036FE06C08AE0989E200D1124922E11C0E4
S1130B80EAE02E9E200D1124222EF32DF0623F2E3A
S1130B9008C08C3621F4832D8068382E02C0883634
S1130BA041F4F70193FD859193FF81917F018111B8
S1130BB0B3CF982F9F7D9554933028F40C5F1F4F2B
S1130BC09FE399830DC0833631F0833771F0833509
S1130BD009F059C021C0F801808189830E5F1F4F3D
S1130BE088248394912C530113C02801F2E04F0E02
S1130BF0511CF801A080B18036FE03C0692D70E05D
S1130C0002C06FEF7FEFC5010E944A074C018201C9
S1130C10F32DFF773F2E16C0280122E0420E511C0F
S1130C20F801A080B18036FE03C0692D70E002C0D7
S1130C306FEF7FEFC5010E943F074C01F32DF06871
S1130C403F2E820133FC1BC0822D90E0881699064A
S1130C50B0F4B60180E290E00E9455072A94F4CFE4
S1130C60F50137FC859137FE81915F01B60190E073
S1130C700E94550721102A9421E0821A91088114B8
S1130C80910471F7E8C0843611F0893641F5F80112
S1130C9037FE07C060817181828193810C5F1F4F91
S1130CA008C060817181072E000C880B990B0E5FC0
S1130CB01F4FF32DFF763F2E97FF09C09095809527
S1130CC0709561957F4F8F4F9F4FF0683F2E2AE0BC
S1130CD030E0A3010E949107882E861845C085370D
S1130CE031F4232D2F7EB22E2AE030E025C0932D3F
S1130CF0997FB92E8F36C1F018F4883579F0B5C0D4
S1130D00803719F0883721F0B0C0E92FE061BE2E9A
S1130D10B4FE0DC0FB2DF460BF2E09C034FE0AC022
S1130D20292F2660B22E06C028E030E005C020E15D
S1130D3030E002C020E132E0F801B7FE07C0608174
S1130D407181828193810C5F1F4F06C06081718124
S1130D5080E090E00E5F1F4FA3010E949107882E50
S1130D608618FB2DFF773F2E36FE0DC0232D2E7FD8
S1130D70A22E891458F434FE0BC032FC09C0832D12
S1130D808E7EA82E05C0B82CA32C03C0B82C01C09D
S1130D90B92CA4FE0FC0FE01E80DF11D8081803343
S1130DA021F49A2D997EA92E09C0A2FE06C0B394FF
S1130DB0B39404C08A2D867809F0B394A3FC11C0BF
S1130DC0A0FE06C0B21488F4280C922C9B180EC006
S1130DD0B21460F4B60180E290E00E945507B39427
S1130DE0F7CFB21418F42B1802C0982C212CA4FEAF
S1130DF010C0B60180E390E00E945507A2FE17C020
S1130E00A1FC03C088E790E002C088E590E0B60149
S1130E100CC08A2D867859F0A1FE02C08BE201C075
S1130E2080E2A7FC8DE2B60190E00E945507891488
S1130E3038F4B60180E390E00E9455079A94F7CF06
S1130E408A94F301E80DF11D8081B60190E00E94BF
S1130E5055078110F5CF222009F442CEB60180E275
S1130E6090E00E9455072A94F6CFF6018681978177
S1130E7002C08FEF9FEF2B96E2E10C945A08FC011D
S1130E800590615070400110D8F7809590958E0FB1
S1130E909F1F0895FC016150704001900110D8F724
S1130EA0809590958E0F9F1F08950F931F93CF9356
S1130EB0DF93FB01238121FD03C08FEF9FEF2CC043
S1130EC022FF16C04681578124813581421753077A
S1130ED044F4A081B1819D012F5F3F4F3183208372
S1130EE08C93268137812F5F3F4F3783268314C02D
S1130EF08B01EC01FB010084F185E02D0995892B20
S1130F00E1F6D80116968D919C9117970196179644
S1130F109C938E931697CE01DF91CF911F910F91E1
S1130F200895FA01AA27283051F1203181F1E8947B
S1130F306F936E7F6E5F7F4F8F4F9F4FAF4FB1E0C8
S1130F403ED0B4E03CD0670F781F891F9A1FA11DC3
S1130F50680F791F8A1F911DA11D6A0F711D811DC4
S1130F60911DA11D20D009F468943F912AE0269F89
S1130F7011243019305D3193DEF6CF010895462FE8
S1130F804770405D4193B3E00FD0C9F7F6CF462FC9
S1130F904F70405D4A3318F0495D31FD4052419332
S1130FA002D0A9F7EACFB4E0A695979587957795EF
S1130FB06795BA95C9F700976105710508959B0176
S1130FC0AC010A2E06945795479537952795BA95FF
S1130FD0C9F7620F731F841F951FA01D0895A6E112
S1130FE0B0E044E050E00C9410080396272F0E94D0
S1130FF01F080E941E08252F0E941F08242F0C94EE
S11310001F08242F0E943108252F0E9431080C94B8
S113101009080E943008272F0C943108DC01CB0109
S1131020FC01F999FECF06C0F2BDE1BDF89A3196F4
S113103000B40D9241505040B8F70895262FF99905
S1131040FECF92BD81BDF89A019700B4021639F023
S11310501FBA20BD0FB6F894FA9AF99A0FBE0895F4
S1131060262FF999FECF1FBA92BD81BD20BD0FB6C0
S1131070F894FA9AF99A0FBE019608952F923F9226
S11310804F925F926F927F928F929F92AF92BF9294
S1131090CF92DF92EF92FF920F931F93CF93DF9340
S11310A0CDB7DEB7CA1BDB0B0FB6F894DEBF0FBE9D
S11310B0CDBF09942A88398848885F846E847D84EA
S11310C08C849B84AA84B984C884DF80EE80FD80EC
S11310D00C811B81AA81B981CE0FD11D0FB6F89462
S11110E0DEBF0FBECDBFED010895F894FFCF23
S11310EE417574686F72697A656420436172642114
S11310FE0A00524649445F4C6F636B2073746172ED
S113110E746564210A0049443A20252E35750D0074
S113111E43617274E36F206EE36F206361646173E5
S113112E747261646F210A004573746F75726F2057
S113113E6461206D656DF372696120656570726F0F
S113114E6D210A004964206772617661646F2063C1
S10F115E6F6D207375636573736F000080
S9030000FC
